:020000040800F2
:1000000000000520110C00080D2800080F2800082A
:100010001128000813280008152800080000000017
:10002000000000000000000000000000A1E5000842
:10003000172800080000000031E60008B9DE0008BB
:10004000610C0008610C0008610C0008610C0008DC
:10005000610C0008610C0008610C0008610C0008CC
:10006000610C0008610C0008610C0008610C0008BC
:10007000610C0008610C0008610C0008610C0008AC
:10008000610C0008610C000819280008610C0008C8
:10009000610C0008610C0008610C0008610C00088C
:1000A000610C0008610C0008610C0008610C00087C
:1000B000610C0008610C0008610C0008610C00086C
:1000C000610C0008610C0008610C0008610C00085C
:1000D000610C0008610C0008610C0008610C00084C
:1000E000610C0008610C0008610C0008610C00083C
:1000F000610C0008610C0008610C0008610C00082C
:10010000610C0008610C0008610C0008610C00081B
:10011000610C0008610C000825280008610C00082B
:10012000610C0008610C0008610C0008610C0008FB
:10013000610C0008610C0008610C0008610C0008EB
:10014000610C0008610C0008610C0008610C0008DB
:10015000610C0008610C0008610C0008610C0008CB
:10016000610C0008610C0008610C0008610C0008BB
:10017000610C0008610C0008610C00080000000020
:10018000610C0008610C0008610C0008610C00089B
:10019000610C0008610C0008610C0008610C00088B
:1001A00031280008610C00083D280008610C000897
:0401B00049280008D2
:1001C00010B5054C237833B9044B13B10448AFF391
:1001D00000800123237010BD4001002000000000BA
:1001E000FC6A020808B5034B1BB103490348AFF38F
:1001F000008008BD0000000044010020FC6A0208E5
:1002000001F0FF01102A2BDB10F0070F08D010F8C7
:10021000013B013A8B422DD010F0070F42B3F6D1CB
:10022000F0B441EA012141EA014122F007047FF0E4
:1002300000070023F0E80256083C85EA010586EA3B
:10024000010685FA47F5A3FA87F586FA47F6A5FA77
:1002500087F68EB9EED1F0BC01F0FF0102F0070283
:1002600032B110F8013B013A83EA010313B1F8D12E
:100270000020704701387047002D06BF354603380F
:10028000073815F0010F07D1013015F4807F02BF48
:10029000013015F4C03F0130F0BC0138704700BF99
:1002A00070B54FF0FF0C4CF4E06C1CEA11541DBF0C
:1002B0001CEA135594EA0C0F95EA0C0F00F0DEF8D7
:1002C0002C4481EA030621EA4C5123EA4C5350EABC
:1002D000013518BF52EA033541F4801143F480130D
:1002E00038D0A0FB02CE4FF00005E1FB02E506F09E
:1002F0000042E0FB03E54FF00006E1FB03569CF0F3
:10030000000F18BF4EF0010EA4F1FF04B6F5007FF8
:1003100064F5407404D25FEA4E0E6D4146EB06066A
:1003200042EAC62141EA55514FEAC52040EA5E50F3
:100330004FEACE2EB4F1FD0C88BFBCF5E06F1ED89D
:10034000BEF1004F08BF5FEA500E50F1000041EBD4
:10035000045170BD06F0004646EA010140EA020081
:1003600081EA0301B4EB5C04C2BFD4EB0C0541EAA3
:10037000045170BD41F480114FF0000E013C00F3B8
:10038000AB8014F1360FDEBF002001F0004170BDDC
:10039000C4F10004203C35DA0C341BDC04F11404F5
:1003A000C4F1200500FA05F320FA04F001FA05F281
:1003B00040EA020001F0004221F0004110EBD3704E
:1003C00021FA04F642EB06015EEA430E08BF20EA7A
:1003D000D37070BDC4F10C04C4F1200500FA04F31D
:1003E00020FA05F001FA04F240EA020001F00041AF
:1003F00010EBD37041F100015EEA430E08BF20EA22
:10040000D37070BDC4F1200500FA05F24EEA020E69
:1004100020FA04F301FA05F243EA020321FA04F098
:1004200001F0004121FA04F220EA020000EBD3704F
:100430005EEA430E08BF20EAD37070BD94F0000F4F
:100440000FD101F00046400041EB010111F4801F83
:1004500008BF013CF7D041EA060195F0000F18BF34
:10046000704703F00046520043EB030313F4801F70
:1004700008BF013DF7D043EA0603704794EA0C0F2A
:100480000CEA135518BF95EA0C0F0CD050EA410640
:1004900018BF52EA4306D1D181EA030101F00041BD
:1004A0004FF0000070BD50EA410606BF10461946E5
:1004B00052EA430619D094EA0C0F02D150EA0136F1
:1004C00013D195EA0C0F05D152EA03361CBF104632
:1004D00019460AD181EA030101F0004141F0FE41D1
:1004E00041F470014FF0000070BD41F0FE4141F455
:1004F000780170BD81F0004102E000BF83F000434D
:1005000030B54FEA41044FEA430594EA050F08BFAE
:1005100090EA020F1FBF54EA000C55EA020C7FEA72
:10052000645C7FEA655C00F0E2804FEA5454D4EBEF
:100530005555B8BF6D420CDD2C4480EA020281EAB9
:10054000030382EA000083EA010180EA020281EAF1
:100550000303362D88BF30BD11F0004F4FEA013143
:100560004FF4801C4CEA113102D0404261EB410152
:1005700013F0004F4FEA03334CEA133302D05242D8
:1005800063EB430394EA050F00F0A780A4F1010494
:10059000D5F1200E0DDB02FA0EFC22FA05F28018CE
:1005A00041F1000103FA0EF2801843FA05F35941B4
:1005B0000EE0A5F120050EF1200E012A03FA0EFC33
:1005C00028BF4CF0020C43FA05F3C01851EBE3715D
:1005D00001F0004507D54FF0000EDCF1000C7EEB7A
:1005E00000006EEB0101B1F5801F1BD3B1F5001FB8
:1005F0000CD349085FEA30004FEA3C0C04F10104D7
:100600004FEA445212F5800F80F09A80BCF1004FFF
:1006100008BF5FEA500C50F1000041EB045141EA81
:10062000050130BD5FEA4C0C404141EB0101013C4A
:1006300028BFB1F5801FE9D291F0000F04BF014639
:100640000020B1FA81F308BF2033A3F10B03B3F10B
:1006500020020CDA0C3208DD02F1140CC2F10C029B
:1006600001FA0CF021FA02F10CE002F11402D8BFF9
:10067000C2F1200C01FA02F120FA0CFCDCBF41EAC5
:100680000C019040E41AA2BF01EB0451294330BD94
:100690006FEA04041F3C1CDA0C340EDC04F1140471
:1006A000C4F1200220FA04F001FA02F340EA030048
:1006B00021FA04F345EA030130BDC4F10C04C4F18E
:1006C000200220FA02F001FA04F340EA030029466E
:1006D00030BD21FA04F0294630BD94F0000F83F4B8
:1006E000801306BF81F480110134013D4EE77FEA9B
:1006F000645C18BF7FEA655C29D094EA050F08BFE7
:1007000090EA020F05D054EA000C04BF19461046C7
:1007100030BD91EA030F1EBF0021002030BD5FEA0B
:10072000545C05D14000494128BF41F0004130BD33
:1007300014F580043CBF01F5801130BD01F0004587
:1007400045F0FE4141F470014FF0000030BD7FEAFA
:10075000645C1ABF194610467FEA655C1CBF0B46F5
:10076000024650EA013406BF52EA033591EA030F0C
:1007700041F4002130BD00BF90F0000F04BF002104
:10078000704730B54FF4806404F132044FF0000537
:100790004FF0000150E700BF90F0000F04BF0021B0
:1007A000704730B54FF4806404F1320410F0004516
:1007B00048BF40424FF000013EE700BF42004FEA11
:1007C000E2014FEA31014FEA02701FBF12F07F438E
:1007D00093F07F4F81F06051704732F07F4208BF45
:1007E000704793F07F4F04BF41F40021704730B54C
:1007F0004FF4607401F0004521F000411CE700BF98
:1008000050EA010208BF704730B54FF000050AE01A
:1008100050EA010208BF704730B511F0004502D51B
:10082000404261EB41014FF4806404F132045FEA1D
:10083000915C3FF4D8AE4FF003025FEADC0C18BFC6
:1008400003325FEADC0C18BF033202EBDC02C2F1B8
:10085000200300FA03FC20FA02F001FA03FE40EA4A
:100860000E0021FA02F11444BDE600BF4FEA410236
:10087000B2F1E04324BFB3F5001CDCF1FE5C0DD9FE
:1008800001F0004C4FEAC0024CEA5070B2F1004F48
:1008900040EB830008BF20F00100704711F0804F4B
:1008A00021D113F13872BCBF01F00040704741F410
:1008B00080114FEA5252C2F11802C2F1200C10FA14
:1008C0000CF320FA02F018BF40F001004FEAC123F8
:1008D0004FEAD32303FA0CFC40EA0C0023FA02F39C
:1008E0004FEA4303CCE77FEA625307D150EA013372
:1008F0001EBF4FF0FE4040F44000704701F0004042
:1009000040F0FE4040F40000704700BF53B94AB9C0
:10091000002908BF00281CBF4FF0FF314FF0FF3007
:1009200000F074B9ADF1080C6DE904CE00F006F8E2
:10093000DDF804E0DDE9022304B070472DE9F0475B
:10094000089D04468E46002B4DD18A42944669D9B3
:10095000B2FA82F252B101FA02F3C2F1200120FA96
:1009600001F10CFA02FC41EA030E94404FEA1C48E4
:10097000210CBEFBF8F61FFA8CF708FB16E341EAE0
:10098000034306FB07F199420AD91CEB030306F166
:10099000FF3080F01F81994240F21C81023E634487
:1009A0005B1AA4B2B3FBF8F008FB103344EA03442B
:1009B00000FB07F7A7420AD91CEB040400F1FF3340
:1009C00080F00A81A74240F207816444023840EA7D
:1009D0000640E41B00261DB1D4400023C5E90043B6
:1009E0003146BDE8F0878B4209D9002D00F0EF8039
:1009F0000026C5E9000130463146BDE8F087B3FA6C
:100A000083F6002E4AD18B4202D3824200F2F98053
:100A1000841A61EB030301209E46002DE0D0C5E956
:100A2000004EDDE702B9FFDEB2FA82F2002A40F0A2
:100A30009280A1EB0C014FEA1C471FFA8CFE0126A5
:100A4000200CB1FBF7F307FB131140EA01410EFB49
:100A500003F0884208D91CEB010103F1FF3802D2F0
:100A6000884200F2CB804346091AA4B2B1FBF7F0EA
:100A700007FB101144EA01440EFB00FEA64508D90D
:100A80001CEB040400F1FF3102D2A64500F2BB804A
:100A90000846A4EB0E0440EA03409CE7C6F1200799
:100AA000B34022FA07FC4CEA030C20FA07F401FADF
:100AB00006F31C43F9404FEA1C4900FA06F3B1FB68
:100AC000F9F8200C1FFA8CFE09FB181140EA0141CD
:100AD00008FB0EF0884202FA06F20BD91CEB01016A
:100AE00008F1FF3A80F08880884240F28580A8F1C2
:100AF00002086144091AA4B2B1FBF9F009FB101114
:100B000044EA014100FB0EFE8E4508D91CEB0101B1
:100B100000F1FF346CD28E456AD90238614440EA54
:100B20000840A0FB0294A1EB0E01A142C846A646D4
:100B300056D353D05DB1B3EB080261EB0E0101FA5D
:100B400007F722FA06F3F1401F43C5E900710026BA
:100B50003146BDE8F087C2F12003D8400CFA02FC10
:100B600021FA03F3914001434FEA1C471FFA8CFE20
:100B7000B3FBF7F007FB10360B0C43EA064300FB10
:100B80000EF69E4204FA02F408D91CEB030300F1AE
:100B9000FF382FD29E422DD9023863449B1B89B265
:100BA000B3FBF7F607FB163341EA034106FB0EF3EE
:100BB0008B4208D91CEB010106F1FF3816D28B429B
:100BC00014D9023E6144C91A46EA004638E72E4667
:100BD000284605E70646E3E61846F8E64B45A9D25F
:100BE000B9EB020864EB0C0E0138A3E74646EAE7CE
:100BF000204694E74046D1E7D0467BE7023B61447C
:100C000032E7304609E76444023842E7704700BFE4
:100C1000DFF834D0002103E00C4B5B584350043123
:100C20000B480C4B42189A42F6D30B4A02E00023C1
:100C300042F8043B094B9A42F9D309F09DFC24F099
:100C4000F7FE00F0CBFF7047000005201492020869
:100C500000000020400100204001002020DF002093
:100C6000FEE700F045BE00F0B7BE0021084608F0E0
:100C7000EBBF002009F022B8406870474160704720
:100C80004FF0E022D2F8FC3D43F08073C2F8FC3D07
:100C9000A2F55042136843F0010313607047511AE4
:100CA00001EB5301B1FBF3F070470000014B5868B2
:100CB000704700BF001000E0704710B50C210446DB
:100CC00024F03DFE204610BD036810B51B690446A4
:100CD00031B19847A26863689B1A1844606010BDE0
:100CE0009847A060FBE770477047000008B5FFF722
:100CF000BCFF024B00221A6008BD00BF5C0100204F
:100D000070B50D46FFF7B5FF0B4A9378567811780A
:100D1000D370C4B213F001009670517014700AD0F1
:100D200016F0010007D011F0010004D0E3075ABF0C
:100D300001202870002070BD5C01002010B5042146
:100D4000044624F0FCFD204610BD704710B5042178
:100D5000044624F0F4FD204610BD000008B54FF411
:100D6000F0714FF4487009F059FB074B10B901229C
:100D70001A7008BD1B78002BFBD1044B044A0548B0
:100D8000272124F00BFE00BF60010020986B0208B1
:100D9000AB6B0208D56B02087FB50B4B1C780E4677
:100DA00015465CB101A809F071FB9DF8043043B110
:100DB000BDF806303360BDF80A302B60204604B021
:100DC00070BD1C46FAE700BF60010020032823D84D
:100DD000DFE800F0020B1219104B1A68B2FA82F227
:100DE000520904210E480AF04DBE0C4B5A68B2FA63
:100DF00082F252094021F5E7084B9A68B2FA82F272
:100E000052090221EEE7054B0648DA68B2FA82F28F
:100E100052094FF48051E6E7704700BF640100209B
:100E20000000024000180240032823D8DFE800F049
:100E3000020B1219104B1A68003A18BF0122042144
:100E40000E480AF01FBE0C4B5A68003A18BF012228
:100E50004021F5E7084B9A68003A18BF01220221A9
:100E6000EEE7054B0648DA68003A18BF01224FF456
:100E70008051E6E7704700BF640100200000024097
:100E80000018024003280FD8DFE800F00206080A25
:100E9000042106480AF0FBBD4021FAE70221F8E7E9
:100EA00003484FF48051F5E7704700BF000002404F
:100EB0000018024008B5032813D8DFE800F0020A42
:100EC0000C0E042108480AF0D7FD431E5842584131
:100ED00008BD4021F6E70221F4E704484FF48051B1
:100EE000F1E70020F1E700BF0000024000180240D7
:100EF00070B5084D00240126E0B2FFF7DBFF18B102
:100F00002B68012B18BF2E600134052C05F1040558
:100F1000F2D170BD64010020012380F8741080F8C4
:100F20007530704700207047034B4164003918BF8B
:100F300001211970704700BF73DC0020002070474A
:100F4000836B0BB10846184770474FF6FF70704728
:100F5000406803689B69184770477047014B1868E1
:100F6000704700BF740100207047000038B5044688
:100F7000094DFFF7BDFF204600F0AEFD002384F8C9
:100F80004A302846FFF77CFE012384F86C30034B7F
:100F90002561636138BD00BF800100207C01002015
:100FA0000368044607B5D3F8803098472368204685
:100FB0009B6F984700F02EFA236820461B6F9847D6
:100FC000002106480091292315220AF044FB00F075
:100FD00021FA236820461B6F9847F8E7504A002003
:100FE00010B5044610F0FCF823682046D3F8AC3066
:100FF000BDE81040184700F06EBD00F084BD00F061
:1010000084BD00F057BD00F05DBD00F081BD000063
:10101000024B00221A700FF087BB00BF14000020A3
:1010200010B504460FF08CFB94F84B3013B1024B13
:1010300001221A7010BD00BF140000200FF038BB51
:1010400010B57C21044624F07AFC204610BD90F8AF
:1010500077301BB1406803681B6818471846704713
:1010600010B590F8341090F874400C4B8C421A78FC
:1010700009D03AB90A4A0B491488088810800C80B4
:1010800001221A7010BD002AFCD0054A05491488B7
:10109000088810800C800022F3E700BF6CDC002081
:1010A00068DC00206ADC002008B5094B1B888B42F5
:1010B00003D8084B1B88934205D9074B074A0848B9
:1010C0009E2124F06BFC074B1980074B1A8008BD4A
:1010D00068DC00206ADC00203C6C02089F6C02087F
:1010E000E26C02086EDC002070DC002070B50D465A
:1010F00019460B4B1D6035B90A4B0B4A0B4840F2A1
:10110000D22124F04BFCC0E90F52094B003A18BF22
:1011100001221A700368BDE87040D3F88C3018477C
:1011200074010020276D02085F6D0208E26C02085E
:1011300072DC0020012807B50AD84B7800930B78A1
:101140000848152200210AF086FA03B05DF804FB76
:1011500001910B5C009339220346002101480AF0FB
:101160008BFAF2E7504A002037B50B4A0B4C0223AA
:1011700015251370557001924422009200213922E6
:1011800020460AF079FA0021009135232A462046AC
:101190000AF061FA03B030BD8C010020504A0020F3
:1011A00007B50190FFF7E0FF019803B05DF804EB8D
:1011B00000F090BC07B5074B03EB80002A23019099
:1011C000009339220423002103480AF055FA03B0A2
:1011D0005DF804FB04000020504A002070B5154D56
:1011E00004460020FFF7F2FD2A6892F866300133CA
:1011F00082F8663000F002F90F4B28681A781B78E5
:1012000080F84A2023B10D4D2B7803F0FF0623B15F
:10121000BDE870400020FFF707BE0FF0E1FF084B6C
:1012200030461E60FFF7C6FF20460AF004FA01238D
:101230002B7070BD74DC0020140000208E01002093
:1012400078010020334B1A68013270B51A60324BB6
:10125000324C1968324B032A05462EDCD4F80404BC
:1012600020F00800C4F804044FF4C87000FB021119
:10127000C3F8AC100CBFE823C823023328491B0471
:1012800043F4F1730B61274B4B61A3F5F073C1F885
:101290008830254BC1F8B030012310464B62FFF770
:1012A00089FF1E4AD2F8043443F008032846C2F8E6
:1012B0000434BDE870400AF0BEB9D4F8042422F02A
:1012C0000802C4F80424194AC3F8AC101A6102F1E8
:1012D00001125A61164AC3F88820134AC3F8B02095
:1012E00001225A620020FFF765FFD4F8043443F06E
:1012F0000803C4F804340020FFF796FD0D4B0022CC
:101300001A700D4B186820B10368BDE870401B6A65
:10131000184770BD7801002074010020006C014066
:1013200000680140E301CA0093018006E201CA009F
:101330000300CA008E01002074DC002008B5044BB5
:101340000146186801B101210FF064FF012008BDBA
:1013500074DC0020054B064800225A609A60054A5A
:101360001A60054B0360FFF7C1BC00BF800100207D
:101370007C0100205C6B0208846B0208012108B527
:10138000002208460CF027FE0A4B186028B90A4BC9
:101390000A4A28210A4824F001FB002204210120E6
:1013A0000CF0B6FE074B186018B9074B034A2C2106
:1013B000F0E708BD94010020886E0208D16E020893
:1013C000006F0208900100204D6F0208024B4FF0A1
:1013D000FF3118680CF049BE94010020014B1868D9
:1013E0000CF06EBE94010020024B002118680CF036
:1013F0003CBE00BF94010020FFF7F0BF0348044942
:10140000006800231A460CF0BEBE00BF9001002009
:101410001800002013B5084C00231A4601A92068C3
:101420000CF0E1FE20684FF0FF33002201A90CF020
:10143000DAFE02B010BD00BF9001002003685B6CB3
:1014400018470120704703689B6A184782B0002341
:1014500001930D4B1A6B42F400021A631A6B02F4EB
:1014600000020192019A1A6942F400021A611A6993
:1014700022F400021A61054B054A1A61054B4FF030
:1014800080629A6002B0704700380240104A002023
:10149000D914000800E100E040F2EF30704700008E
:1014A000054B0360054B4FF08062C3F88820BFF303
:1014B0004F8FBFF36F8F7047EC70020800E100E0C0
:1014C00010B504464FF45A61FFF7EAFF204624F0B6
:1014D00036FA204610BD0000024B1B6858680368AE
:1014E0005B69184774DC002070B5044625460A4B3A
:1014F0000C30002660602672667245F8203B602240
:1015000029460FF0DBFF04F55A63EE602435AB4249
:10151000FBD1204670BD00BFEC70020808B50B2956
:101520000BD8DFE801F01206100A0A0A0A080808B8
:101530000808012008BD0520FCE7054B054A0648C0
:10154000662124F02BFA0020F4E70220F2E700BF26
:101550008F6F0208AA6F0208F46F020808B50A2903
:1015600009D8DFE801F010060E080808080606068C
:101570000600012008BD054B054A0648872124F0D6
:101580000DFA0020F6E70220F4E700BF8F6F020893
:101590003F700208F46F02082DE9F8434F7F0C46B4
:1015A00039468146FFF7BAFF94F81E80054641464A
:1015B0004846FFF7B3FF414606464846FFF7CEFFD1
:1015C000A18A628B424B521A1A649A61228B521A78
:1015D0001A61E28A586342EA01425A6420696268E9
:1015E000D863DA60216894F81CC080294FEA0C6245
:1015F00026D010D8202945EA020461D040295FD0C6
:1016000004295DD0324B2A4342F400324745DA6167
:101610005AD0304A40E0B1F5807F07D0B1F5007F65
:10162000F0D142F4003242F0090203E042F4003209
:1016300042F00A02DA61E2681A625E6258612AE0E8
:10164000A4682A4342F40032211DD962DA6122786B
:101650005E62586142B1012A21D01F4B1F4A2048C7
:1016600040F2111124F09AF9DA69618822F47F427C
:10167000013922F0100242EA0122DA610120144B02
:10168000DA6942F02002DA61DA699206FCD41022AB
:101690009A600028BDD0134A1A60BDE8F8836288BA
:1016A000D969541E21F47F4222F0100242EA04223A
:1016B000BCF1FF0042F0100218BF0120DA61DEE742
:1016C00044F40034DC61B8E740F20122E4E700BFF3
:1016D00000B00240010201008A700208A4700208F2
:1016E000F46F02080102020070B50C46897FFFF713
:1016F00035FFA68AE18A628B154B2569586341EA5A
:101700000641921B5964DD631A642668E168082E5D
:101710000DD19A611A615862207F0E4A42EA006236
:10172000DA610D4A19625D61DD601A6070BD0022E8
:10173000D8611A6148090A0A02F4784200F4FC6090
:101740000243C1F3C4010A439A63044AEDE700BFB0
:1017500000B0024009000100010202000102030082
:10176000034B1A68D207FCD423229A60704700BF4B
:1017700000B0024030B50F4C2568ED07FCD423259E
:101780000904A56041F001010225FF2B6563616436
:10179000E0630AD00849656241EA0363E361074BED
:1017A00022626061E060236030BDE561039BA3635A
:1017B000034BF8E700B002400900010001000200FD
:1017C00001000300012070470C2070470C2303FB2D
:1017D0000100083070470C2303FB010008307047FC
:1017E0000120704743F2DC70704743F2DC7303FB67
:1017F00001000830704743F2DC7303FB010008303E
:101800007047012070471020704700EB011008302E
:10181000704700EB011008307047084601F0FEB930
:1018200010B5034B036004460EF08FFC204610BD3C
:10183000A471020810B50446FFF7F2FF20461421F8
:1018400024F07DF8204610BD10B5034B036004461C
:101850000EF07BFC204610BD7071020810B50446E6
:10186000FFF7F2FF204643F2E47124F068F82046C7
:1018700010BD000010B5034B036004460EF065FC7C
:10188000204610BD3C71020810B50446FFF7F2FF78
:101890002046182124F053F8204610BD10B5094BFE
:1018A0000360044600F560501030FFF7B9FF04F103
:1018B0002C00FFF7C9FF04F11400FFF7DBFF2046FF
:1018C00010BD00BFD871020808B50248FFF7E6FF57
:1018D00008BD00BF9C01002010B50446FFF7DEFFE5
:1018E00020464FF4665124F02AF8204610BD00002F
:1018F0002DE9F34101F01CF8054601F01DF8002424
:101900000146234628462246009417F0F9FE264B4E
:10191000264A274D1A60204607F050FA254817F04E
:1019200057FE2B78BFF35B8FDB0736D4284624F0B5
:1019300008F890B3204C214F214B236007F1180683
:1019400004F1140004F12C086060C4F80880E7601A
:1019500026610EF0FBFB1B4B636140460EF0F6FB6D
:10196000194BE36238460EF0F1FB04F54053174A79
:10197000C3F8102803F6240007F0ECFB224607F119
:101980001401304607F0DCFB304601F047F91048FF
:1019900024F022F8284623F0E0FF0E4802B0BDE80C
:1019A000F041FFF7E3BA00BFD8DC00203C4900203B
:1019B000980100201C0000209C010020AC39002070
:1019C000D87102083C71020870710208A471020803
:1019D000C9180008C04800200148FFF7E1BA00BF5D
:1019E000C048002070B5234E234C244D244B236067
:1019F0003046FFF779FD28461AF08CFF214B22482C
:101A0000DC6000224FF48071C3E912121F491A866C
:101A1000C3E919124FF080715967012183F87810DA
:101A20001B491A660B604FF450710180194883F806
:101A30006C20018018481A674FF4F071C3E9042242
:101A4000C3E90622C3E90822C3E90A22C3E90E2238
:101A5000C3E91022C3E91422C3E91622C3E90165D0
:101A600001800E4883F8342001800D490A700D4A28
:101A70001A6070BD203B00201C3B00204049002024
:101A80002C6C0208C048002068DC00200100000126
:101A900074DC00206EDC00206ADC002070DC00209A
:101AA0006CDC0020B86D02080148FFF7F9BC00BFEC
:101AB000203B0020024B902283F85A23704700BF3E
:101AC00000E100E0024B4FF080629A60704700BF77
:101AD00000E100E07047704770B504460EF03DFE2F
:101AE00023685D6E14F0B8FD01462046A8472368C0
:101AF000D3F8885000232046AC461A46BDE8704013
:101B00004FF0404160470EF0D9BD0EF032BF0000EB
:101B1000044B4FF08062C3F88820BFF34F8FBFF3B0
:101B20006F8F704700E100E0014900200DF092BE88
:101B30003D13000808B564200CF041FAFBE70000F3
:101B400030B595B01022002109A823F0B3FF14226C
:101B5000002102A823F0AEFF00241E4B00941A6C53
:101B600042F080521A641B6C03F080530093009B78
:101B7000194B01941A6842F440421A601B6803F43E
:101B8000404301930122019B4FF48033CDE90723A9
:101B900002254FF480030821CDE90D534FF4B473AF
:101BA000CDE90F1304200623CDE9120307A81195F0
:101BB0000BF016FB0AF06AFD0F23CDE90235052173
:101BC0004FF4A05302A8CDE9053304940BF0DCF8E0
:101BD00015B030BD00380240007000402DE980484B
:101BE000BBB008F0D7FCFFF7ABFF142200212DA8F3
:101BF000002423F05FFFC74B03941A6BC648C74FFE
:101C000042F010021A631A6B02F010020392039A58
:101C100004941A6B42F002021A631A6B02F0020279
:101C20000492049A05941A6B42F040021A631A6BEC
:101C300002F040020592059A06941A6B42F00802DF
:101C40001A631A6B02F008020692069A07941A6B3E
:101C500042F480721A631A6B02F480720792079A38
:101C600008941A6B42F020021A631A6B02F02002E9
:101C70000892089A09941A6B42F480621A631A6BEC
:101C800002F480620992099A0A941A6B42F0800267
:101C90001A631A6B02F080020A920A9A0B941A6B6A
:101CA00042F001021A631A6B02F001020B920B9AC6
:101CB0000C941A6B42F004021A631A6B02F00402CD
:101CC0000C920C9A0D941A6B42F400721A631B6BFF
:101CD00003F4007322464FF480510D930D9B09F0DD
:101CE000D1FE8F482246082109F0CCFE8D482246BD
:101CF000462109F0C7FE22468B488021012609F0C3
:101D0000C1FE03254FF48053834830952DA9CDE9BA
:101D10002D362F9409F028FD082281482DA9CDE900
:101D20002D26CDE92F4409F01FFD46227D482DA91F
:101D30004FF08008CDE92D26CDE92F4509F014FD9F
:101D40002DA911227848CDE92D82CDE92F4509F042
:101D50000BFD7648764A026008F024FF754AC7E911
:101D60000A44C7E90C443846C7E90024C7E90244DD
:101D700009F02CF83146384609F0E0F84146224691
:101D800069486D4F09F07EFE142008F02FFC414693
:101D90003246654809F076FE0A2008F027FC242226
:101DA000214617A8109423F085FE1822214611A879
:101DB00023F080FE342221462DA823F07BFE2C2226
:101DC00021460DEB080023F075FE4FF002085B4A38
:101DD0007D214FF0040ACDE90E1838460EA9C7E957
:101DE0000024C7E902A609F071F917A93846CDE920
:101DF0001764CDE91944CDE91B44CDE91D441F9476
:101E000009F090FB1C232121CDE911310F23192169
:101E1000CDE91331384611A9CDE9154409F045FB48
:101E20005146384609F030FB42F21071384609F04D
:101E300084FC2146384609F0E6F84FF480724FF4EE
:101E40000071CDE92D214FF480634FF40061CDE99D
:101E50002F314FF480514FF40053CDE931134FF43B
:101E600080434FF48031CDE933314FF400304FF4EB
:101E700080214FF4002CCDE935014FF08071CDE980
:101E800037C138462DA94FF0C80B4FF01009CDF8D7
:101E9000E48009F0C5FA20A93846CDE9244ACDE905
:101EA0002044CDE922B9CDE92684CDE928442A96FB
:101EB00009F044FA2146384609F02FFA2048214912
:101EC0000462C0E90014202340214FF4805EC0E981
:101ED00004314FF4C0714FF48043C0E909E3C0E915
:101EE000061407232DA9CDE92E3ACDE93035C0E9F6
:101EF000024ACDE93288CDF8B4800BF02BFB08F014
:101F000077FA08F027FA2146342220A823F0D2FDE0
:101F10000D4D1BE00038024000180240104A00201E
:101F20000028024000000240001C0240084A002035
:101F30000030024000B00240504A0020006C0140D6
:101F4000B44B0020400100A0C04A0020874BAC8663
:101F5000C5E900344FF0CA0A4FF4F173C5E909A38B
:101F6000CB2240F2E3132846C5E90B23C5E902441E
:101F7000C5E90446C5E90668C5F8208085F83640FD
:101F80000AF04EFAFF22CDE925244FF480610522A4
:101F9000CDE927124FF040424FF4F07320A9CDE96C
:101FA000292B28462246CDE923382B93CDE9204B17
:101FB0002294ADF8B0408DF8B2400AF0FDFA2A68DC
:101FC000936923F001039361384609F011FB314610
:101FD000404607F083FB282315222146384600940B
:101FE00009F039FB2DA93846CDE92D44CDE92F4420
:101FF000CDE93144CDE93344CDE93544379409F096
:102000000FFA4FF44871224628460AF003FB2A686B
:1020100057489369574F33439361574B0462C0E964
:1020200000361B254FF48063C0E90453C0E9026900
:10203000524DC0E906440AF037FC08F051F807F0A9
:1020400085FF07F0FBFE4E4B2C62C5E90073284666
:102050004FF48043C5E90434C5E90244C5E90644A8
:1020600009F0FAFE284609F09FFF4A4621462DA8AE
:1020700023F020FD434D444BAC60C5E900342846B5
:102080004FF08053C5E90A432C612C7685F8204037
:10209000EC60EE6185F830406E6108F0BBFA0C230D
:1020A0002DA92846CDE92D362F9408F077FC284637
:1020B00008F056FB1C22214620A8CDE9174423F046
:1020C000F9FC202221462DA823F0F4FC2F4DDFF847
:1020D000D8C0AC602C23C5E900C3284643F67F6313
:1020E000C5E90334C5E905440BF09AFC17A9284655
:1020F000CDE917440BF0CAFD4FF0600E22464FF4B5
:10210000FA5320A92846CDE920E3CDE92244CDE9C0
:10211000244426940BF0E6FC4FF400532DA92846E6
:102120003293CDE92D44CDE92F44319434940BF012
:10213000EBFD214628460BF0A7FD284600F040FAAB
:10214000FEF78FFD0BF0C6FE114A124821460BF038
:10215000EDFE114B114A1860214611480BF0E6FEC6
:10216000104B18600BF0C8FEFEE700BF006801408E
:10217000684B002000540040001000A06C4A002072
:10218000801A0600C049002000200140E84B0020D2
:1021900024720208351B0008BC49002000720208A6
:1021A000670C0008B84900200000014008B508F09D
:1021B00061FB024B80B2188008BD00BF304C00208C
:1021C0000268034B9A4201D108F0FEB9704700BF84
:1021D000001000407047000082B00E4B00220092B9
:1021E000596C41F480415964596C01F4804100916B
:1021F00000990192196C41F0805119641B6C03F035
:1022000080530193019B0F216FF0010002B008F091
:1022100075BC00BF0038024010B5044688B01422D7
:10222000002103A823F046FC2268164B9A4226D1CF
:1022300003F58C33002401945A6C134842F48072E5
:102240005A645A6C02F480720192019A02941A6BD9
:1022500042F004021A631B6B03F00403029304228E
:10226000029B03A90323CDE9032309F07DFA122081
:102270002246052108F042FC122008F071FC08B04B
:1022800010BD00BF00200140000802400268094B59
:102290009A4282B00BD100230193074B1A6B42F490
:1022A00080521A631B6B03F480530193019B02B0AD
:1022B000704700BF003002400038024007B50F4BA6
:1022C00002689A4216D10022A3F5F0430192196BDD
:1022D00041F4000119631B6B03F400030193052112
:1022E0005A20019B08F00AFC5A2003B05DF804EB69
:1022F00008F036BC03B05DF804FB00BF00B002403C
:1023000010B5044688B01422002103A823F0D2FBA4
:102310002268174B9A4228D103F54C4300240194BC
:102320005A6C144842F000625A645A6C02F000621F
:102330000192019A02941A6B42F400721A631B6BA9
:1023400003F4007302930422029B0223CDE90323CA
:1023500003A90D23079309F007FA5C202246052103
:1023600008F0CCFB5C2008F0FBFB08B010BD00BF00
:10237000006C01400024024030B5044689B01422AC
:10238000002103A823F096FB22681A4B9A422FD112
:10239000194C1A4800250195236B43F0020323636F
:1023A000236B03F002030193019B4FF4407212234D
:1023B000CDE9032301210323CDE90513042303A958
:1023C000079309F0D1F90295236C43F400132364B9
:1023D000236C03F400130293029B236A43F400135B
:1023E0002362236A23F400132362642008F0FEF8BA
:1023F00009B030BD005400400038024000040240E3
:1024000008B502680A4B9A4210D10A4A0A48136C6E
:1024100023F4001313644FF4807109F08BFABDE8C4
:10242000084005484FF4007109F084BA08BD00BFA8
:1024300000540040003802400004024010B5044639
:1024400090B03C22002101A823F034FB2268124BFB
:102450009A421FD1082301934FF4B473059301A846
:10246000062308930AF05AFD08B1FFF7B3FE0B4BA1
:1024700000220092596C41F0806159645B6C03F05A
:102480008063009358200521009B08F037FB5820FB
:1024900008F066FB10B010BD006801400038024033
:1024A000F0B5044689B01422002103A823F002FBF2
:1024B0002268244B9A4242D1234B244800240094A2
:1024C0009A6B42F002029A639A6B02F00202009247
:1024D000009A01941A6B42F002021A631A6B02F01E
:1024E00002020192019A02941A6B42F020021A63CE
:1024F0001B6B03F02003029302260325029B0A278D
:10250000402303A9CDE90336CDE9065709F02CF99C
:102510004FF49863CDE903360D48092303A90793C7
:10252000CDE9054509F020F94FF4407308480797B5
:1025300003A9CDE90336CDE9054509F015F909B040
:10254000F0BD00BF001000A00038024000040240AF
:102550000014024008B50268094B9A420FD1094A9B
:102560000948936B23F002039363402109F0E2F9D9
:10257000BDE8084005484FF4F86109F0DBB908BD33
:10258000001000A000380240000402400014024085
:102590000268094B9A4282B00BD100230193074B8A
:1025A0005A6C42F001025A645B6C03F00103019320
:1025B000019B02B0704700BF00000140003802409C
:1025C00010B5044686B01422002101A823F072FA47
:1025D00022680E4B9A4216D1002300930C4B0D48F3
:1025E0001A6B42F001021A631B6B03F001030093A4
:1025F000009B4FF480720223CDE9012301A901233E
:10260000059309F0B1F806B010BD00BF000001400D
:1026100000380240000002402DE9F04186B000235E
:102620000393314B1C68002C5BD14FF00108C3F8B9
:1026300000802E4B00949A6B2D4842EA08029A6360
:102640009B6B03EA08030093022703260C25009BDB
:1026500001A94FF68373CDE90137CDE9046509F08F
:1026600083F848F233132348059501A9CDE90137D2
:10267000CDE9034609F078F84CF203731E4805953E
:1026800001A9CDE90137CDE9034609F06DF840F223
:10269000FF631A48059501A9CDE90137CDE9034645
:1026A00009F062F84FF63F031548059501A9CDE9F9
:1026B0000137CDE9034609F057F8124805954FF662
:1026C0000C7301A9CDE90137CDE9034609F04CF8B7
:1026D0000D48059501A9CDE90187CDE9034609F02B
:1026E00043F806B0BDE8F081384C002000380240C5
:1026F0000010024000180240000C0240002002407E
:1027000000140240001C024000080240174B1A68E7
:1027100010B552BB164A174801241C60936B23F076
:10272000010393634FF6837109F004F9124848F2EC
:10273000331109F0FFF811484CF2037109F0FAF86F
:102740000F4840F2FF6109F0F5F80E484FF63F01DF
:1027500009F0F0F80C484FF60C7109F0EBF821463F
:102760000A48BDE8104009F0E5B810BD344C00201F
:10277000003802400010024000180240000C0240E5
:102780000020024000140240001C024000080240E9
:1027900030B5014689B00022362008F0AFF9362066
:1027A00008F0DEF90025154B02951A6C144C42F026
:1027B00010021A641B6C03F01003029301A903A812
:1027C000029B0AF08DFB0AF07BFB0E4B236040F26C
:1027D000E733E36040000C4BB0FBF3F0013860607E
:1027E00020462561A5600BF0EFF820B920460AF0DD
:1027F000A5FF09B030BD0120FBE700BF0038024053
:102800003C4C00200010004040420F007047FEE7A3
:10281000FEE7FEE7FEE77047014808F030B800BF6A
:10282000C049002001480AF0C7BF00BF3C4C00204F
:10283000014809F064BE00BFC04A0020014808F00A
:10284000F3BA00BF104A0020014808F0F4BC00BFF2
:10285000504A00200120704708B523F0D1F8162314
:1028600003604FF0FF3008BD08B523F0C9F8162308
:102870000360FEE770B50D4614460E46731B9C427E
:1028800001DC204670BDAFF3008006F8010BF5E7D0
:1028900070B50D4614460E46731B9C4201DC204663
:1028A00070BD16F8010BAFF30080F5E74FF0FF3075
:1028B00070474FF400534B60002070470120704771
:1028C000002070470A4A116808B5034609B909494A
:1028D00011601068694603448B4206D923F090F8D2
:1028E0000C2303604FF0FF3008BD1360FCE700BF0E
:1028F000844C002020DF0020704710B504210446DE
:1029000023F01DF8204610BD012908B506D0022984
:1029100008D059B906F09EFA006808BD06F09AFA88
:102920004068FAE706F096FA8068F6E70020F4E7D8
:10293000004870475C7202080820704713B50024F5
:1029400051B1036801948DF8034001AA9C680DF110
:102950000303A04702B010BD0846FBE7408970475B
:10296000808970478088704783798088184480B256
:102970007047C07900F07F007047C079C009704788
:10298000704710B50821044622F0D9FF204610BD3B
:102990007047704700F596730868496803C370472D
:1029A000704770474160704770470000064BC0F8A1
:1029B00048310023C0F84C3100F5A073C0F8440141
:1029C000C0F83C31704700BF6D2A00080123037234
:1029D00070477047704710B4C2684168541003468E
:1029E00001EB6200D20748BF0A599B685DF8044BAF
:1029F00048BFD358184743682BB183682BB9C068C8
:102A000000F001007047184670470120704710B56C
:102A10000C21044622F093FF204610BD10B5102172
:102A2000044622F08CFF204610BD10B54FF4AC7167
:102A3000044622F084FF204610BD08B513F00CFEBA
:102A4000BDE8084014F0ACB910B50446D0F83C011C
:102A500058B10368DB68984738B1D4F83C01036883
:102A60009B6898470023C4F83C3110BD2DE9F14F15
:102A7000D0E9545A0746A86803681B6A984743F28E
:102A8000DB73984205D8454B454AA321454822F0BF
:102A900085FF686803681B6A98470F2803D8424B74
:102AA0003F4AA421F2E7E86803681B6A98470B28AD
:102AB00003D83E4B3A4AA521E8E7DFF8F89013F037
:102AC000CBFD13F0CFFDD9F8000010B10368DB682F
:102AD0009847D9F8000010B103681B689847DFF8E1
:102AE000D880D8F8000010B103685B699847D7F820
:102AF000380110B103685B689847D8F8000010B13E
:102B000003681B689847D7F8380110B103689B68C1
:102B10009847E868036800215B6A98474FF0000B0C
:102B2000234B03600446C0F804B080F808B0A868DE
:102B3000036859465B6A9847064606F00BFC6868CE
:102B4000036859465B6A98473146054606F044FBE0
:102B5000C9F80040C7F83851C8F80060E5B12B1D2E
:102B6000CAF800303368C5F808A03046DB68F56362
:102B700098472B6828461B6898472146304615F031
:102B80003BFA236820461B69984723685B69204607
:102B900001B0BDE8F04F18472B46E1E70C7302087F
:102BA0009A7302089E740208E57402088875020888
:102BB00098760208BCDC0020B8DC0020F8B504469A
:102BC00017460E4613F068FD104B0025C4E95476F5
:102BD0000F4E1C60C4E952550E4B306823600E4BFB
:102BE000C4E95035036829469B68C4E94E559847A7
:102BF000284606F0E3F8336893F876200AB1D86CDB
:102C000000B998681BF06DFC2046F8BDC8DC0020B8
:102C100074DC00204C76020834760208064BC0F8BB
:102C200048310023C0F84C3100F5A073C0F84401CE
:102C3000C0F83C31704700BF6D2A0008006A704739
:102C4000406A704770478B8880690A68DB0A50F8D1
:102C500023001044704710B5C2B1137BB3B1547B4D
:102C6000D27A240204F4E0641443C26998B202EBFD
:102C7000840213888B4202D192F9020010BD05D85C
:102C8000013880B204320028F3D1F7E70020F5E7DD
:102C900010B52821044622F052FE204610BD000047
:102CA00030B589B00446BDF850500695BDF84C507B
:102CB00005959DF8405004959DF83C5003959DF86E
:102CC000385002959DF8345001959DF8305000958C
:102CD00014F006FD064B2360119BA361129BE36178
:102CE000159B2362169B6362204609B030BD00BF6E
:102CF000BC7602080020704781807047C180704711
:102D00000181704741817047704770477047704735
:102D1000704710B4C4880368121B84885B6D091B5C
:102D200012B25DF8044B09B218474FF6FF73838166
:102D30004FF0FF3303621368C36110607047806A0D
:102D400070477047704770477047704790F825206C
:102D50001AB190F8242002B1186070470020704723
:102D60008B88838001207047704780F82C10704753
:102D700010B40368046BD3F8A430624361435DF878
:102D8000044B1847D0ED0C7A0368F8EEE77AD3F8D5
:102D9000A43020EE270AB5EEC00AF1EE10FA17DBD8
:102DA000B6EE007A30EE070ABDEEC07A17EE101AC2
:102DB00060EEA70AF5EEC00AF1EE10FA1CDBF6EEA3
:102DC000007A70EEA70AFDEEE07A17EE902A184717
:102DD000BDEEC07AF8EEC76A17EE102A30EE660A2A
:102DE000F7EE086A30EE260A511EBDEEC00A10EE5C
:102DF000102A0A441146DBE7FDEEE07AB8EEE77AE6
:102E000017EE902A70EEC70AB7EE087A70EE870ABE
:102E1000013AFDEEE00A10EE90CA94446246D6E70D
:102E200010B40368046BD3F8B03062435DF8044B10
:102E30001847D0ED0C7A0368F8EEE77AD3F8B03093
:102E400027EE800AB5EEC00AF1EE10FA08DBF6EEC6
:102E5000007A30EE270AFDEEC07A17EE902A184766
:102E6000FDEEC07AB8EEE77A17EE902A30EE470A08
:102E7000B7EE087A30EE070A013ABDEEC00A10EE4E
:102E800010CA94446246EAE710B40368446BD3F86E
:102E9000BC30624361435DF8044B1847D0ED0D7AB6
:102EA0000368F8EEE77AD3F8BC3020EE270AB5EED7
:102EB000C00AF1EE10FA17DBB6EE007A30EE070A20
:102EC000BDEEC07A17EE101A60EEA70AF5EEC00A42
:102ED000F1EE10FA1CDBF6EE007A70EEA70AFDEEBA
:102EE000E07A17EE902A1847BDEEC07AF8EEC76A6E
:102EF00017EE102A30EE660AF7EE086A30EE260A60
:102F0000511EBDEEC00A10EE102A0A441146DBE73E
:102F1000FDEEE07AB8EEE77A17EE902A70EEC70A77
:102F2000B7EE087A70EE870A013AFDEEE00A10EE7D
:102F300090CA94446246D6E710B40368446BD3F851
:102F4000C03062435DF8044B1847D0ED0D7A03683A
:102F5000F8EEE77AD3F8C03027EE800AB5EEC00A63
:102F6000F1EE10FA08DBF6EE007A30EE270AFDEEFD
:102F7000C07A17EE902A1847FDEEC07AB8EEE77ACD
:102F800017EE902A30EE470AB7EE087A30EE070ABD
:102F9000013ABDEEC00A10EE10CA94446246EAE758
:102FA000D0F82C31026B002B07DB02EB430393FBC1
:102FB000F2F000EBD070401070476FF0010000FBA2
:102FC0000320013890FBF2F000EBD070401040423B
:102FD0007047D0ED4B7AB8EEE70AD0ED0C7AF8EEF8
:102FE000E77A80EE270A7047D0F82C017047D0F8B6
:102FF0003031026B002B07DB02EB430393FBF2F053
:1030000000EBD070401070476FF0010000FB032010
:10301000013890FBF2F000EBD07040104042704756
:10302000D0ED4C7AB8EEE70AD0ED0C7AF8EEE77AFC
:1030300080EE270A7047D0F830017047D0F834315D
:10304000426B002B07DB02EB430393FBF2F000EB38
:10305000D070401070476FF0010000FB0320013872
:1030600090FBF2F000EBD070401040427047D0ED82
:103070004D7AB8EEE70AD0ED0D7AF8EEE77A80EEF9
:10308000270A7047D0F834017047D0F83831426BC6
:10309000002B07DB02EB430393FBF2F000EBD07055
:1030A000401070476FF0010000FB0320013890FBD7
:1030B000F2F000EBD070401040427047D0ED4E7AF5
:1030C000B8EEE70AD0ED0D7AF8EEE77A80EE270A3F
:1030D0007047D0F83801704770B503680446D3F8DC
:1030E00088300D46164698472368324629462046C2
:1030F000D3F89030BDE8704018470368D3F8943097
:1031000018470368D3F8D43018470368D3F8E03081
:1031100018470368002A10B4D3F8A430046B0EDB00
:1031200004EB420292FBF4F101EBD1714910B0F9CA
:103130001E215DF8044B013A0A44494218476FF0DA
:10314000010101FB0241013991FBF4F101EBD17165
:1031500049104942EBE70368D3F83C311847026B4A
:1031600003685143D3F8483118470368D3F8443112
:103170001847D0ED0C7A0368F8EEE77AD3F84831B7
:1031800027EE800AB5EEC00AF1EE10FA08DBF6EE83
:10319000007A30EE270AFDEEC07A17EE901A184733
:1031A000FDEEC07AB8EEE77A17EE902A30EE470AC5
:1031B000B7EE087A30EE070A511EBDEEC00A10EED7
:1031C000102A0A441146EAE7C0F83C117047036828
:1031D000D3F850311847036810B5D3F85C31044672
:1031E00098470028236B07DB03EB400090FBF3F0CC
:1031F00000EBD070401010BD6FF0010202FB0030F8
:10320000013890FBF3F000EBD07040104042F2E741
:103210000368D3F858311847036810B5D3F85C3108
:103220000446984707EE900AB8EEE70AD4ED0C7A08
:10323000F8EEE77A80EE270A10BDD0F83C0170471F
:10324000026B03685143D3F868311847D0ED0C7A0C
:103250000368F8EEE77AD3F8683127EE800AB5EE16
:10326000C00AF1EE10FA08DBF6EE007A30EE270A1B
:10327000FDEEC07A17EE901A1847FDEEC07AB8EE50
:10328000E77A17EE902A30EE470AB7EE087A30EE6A
:10329000070A511EBDEEC00A10EE102A0A4411465C
:1032A000EAE7C0F840117047036810B5D3F87431ED
:1032B000044698470028236B07DB03EB400090FB94
:1032C000F3F000EBD070401010BD6FF0010202FB74
:1032D0000030013890FBF3F000EBD070401040421A
:1032E000F2E7036810B5D3F874310446984707EE47
:1032F000900AB8EEE70AD4ED0C7AF8EEE77A80EEA1
:10330000270A10BDD0F8400170470368026BD3F85C
:103310008431002910B504460EDB02EB410191FB1C
:10332000F2F101EBD171491009B220469847D4E976
:103330004F2302FB003010BD6FF0010000FB0121A4
:10334000013991FBF2F101EBD17149104942EBE7F0
:10335000006B7047406B70470368D3F848311847DB
:103360000368D3F85C311847026B03685143D3F804
:1033700014311847036870B5D3F81851D3F8803169
:10338000D0F84461044698472B4656F82010204652
:10339000BDE870401847B0F91C21B0F91E319342C6
:1033A00007DBB0F94C31194491FBF2F002FB10112C
:1033B00009B2084670474801704780F826107047E8
:1033C00090F82600704710B50022B1F90840B1F915
:1033D0000A10028042808480C18010BD00220280D9
:1033E00042808280C2807047C1627047C06A704765
:1033F0000120704770477047C06B18B10368D3F85D
:1034000080301847704730B5B2F81A11B2F914413C
:10341000B2F94050B2F8422044802144521A0021AF
:1034200001808580C28030BD10B54280BDF9084062
:10343000BDF90C2004808280C38010BD0B68084653
:10344000D3F8D43018470B680846D3F8E030184753
:10345000B1F914017047B1F81401B1F81A310344FD
:10346000B1F84200C01A00B27047B1F916017047B6
:10347000B1F81601B1F818310344B1F84000C01A90
:1034800000B270470B680846D3F81431114618474C
:10349000B2F8181130B5B2F9165105806C18B2F8AF
:1034A0004010B2F94220C280091B00244480818070
:1034B00030BD02808380BDF90020BDF90430428018
:1034C000C38070470B680846D3F8EC3018470B6888
:1034D0000846D3F8F8301847B1F916017047B1F82B
:1034E0001601B1F818310344B1F84000C01A00B217
:1034F0007047B1F914017047B1F81401B1F81A31ED
:103500000344B1F84200C01A00B270470B68084685
:10351000D3F818311146184782B002AB03E9060010
:1035200002B0704782B002AB03E9060002B07047F8
:1035300070477047704770477047704770477047D3
:1035400070477047704770B4C4684568661003469A
:1035500005EB6400E40748BFAC599B6848BFE358DB
:1035600070BC184743682BB183682BB9C06800F062
:1035700001007047184670470120704770B4C46856
:1035800045686610034605EB6400E40748BFAC5984
:103590009B6848BFE35870BC184743682BB18368E9
:1035A0002BB9C06800F00100704718467047012031
:1035B000704730B4C26844685510034604EB62009B
:1035C000D20748BF62599B6830BC48BFD3581847E0
:1035D00043682BB183682BB9C06800F001007047C5
:1035E000184670470120704710B54021044622F06C
:1035F000A6F9204610BD10B54021044622F09FF9DF
:10360000204610BD10B54FF48E61044622F097F9A4
:10361000204610BD10B51021044622F090F9204636
:1036200010BD10B51021044622F089F9204610BDC6
:1036300010B51021044622F082F9204610BD90F802
:103640002C300BB10CF0CDBD704713B503460846C6
:10365000D3E90C1403680191D3F88C309847019991
:103660000246204602B0BDE810400EF001BC13B582
:1036700003460846D3E90C1403680191D3F894304B
:10368000984701990246204602B0BDE810400EF06E
:10369000EFBB00F2646005F09DBF90F8252012B1E9
:1036A00003685B691847704700F21C72914202D1AF
:1036B00003685B6B184700F26472914202D10368A1
:1036C0009B6BF7E700F5F362914202D103681B6C34
:1036D000F0E700F2CC72914202D10368DB6BE9E7BC
:1036E00000F50062914202D103685B6CE2E770472B
:1036F00010B400F198048C4205D103685DF8044BC6
:10370000DB6A06CA18475DF8044B704710B400F135
:1037100098048C4205D103685DF8044B1B6B06CA04
:1037200018475DF8044B70470A1E10B503DBB0F96B
:103730001E41944206DC084B084A094840F23361B6
:1037400022F02CF90368D0F84441D3F8803198472F
:1037500054F8200010BD00BF0C7702082F77020834
:103760007E7702080B1E10B5044603DBB0F91E215C
:103770009A4206DC074B084A084840F22D6122F0C5
:103780000DF90368D3F884319847D4E94F2302FB3D
:10379000003010BD0C770208DB7702087E77020844
:1037A00010B5064B0360064BC0F86436044600F2C1
:1037B000646005F09FFB204610BD00BFCC7D020871
:1037C0006C82020810B50446FFF7EAFF204643F278
:1037D000D47122F0B4F8204610BD70B503680446D9
:1037E0001B6B154698472368294620465B6BBDE84E
:1037F0007040184770B504461D46BDF91060FFF7CC
:10380000ECFF2368294620469B6B98472368314686
:103810002046DB6BBDE87040184700000022C0E97D
:103820000122C0E90322C0E90522C0E907224FF4C2
:1038300080728284014A0260704700BFF0790208FA
:1038400037B501AB154614F062F800284FEA401472
:1038500001992A464FF0200004DB14F077F8204449
:1038600003B030BD14F072F8201AF9E770B5B0F962
:103870001441B0F81A516319B0F84250ED1AD0E96A
:103880004D320E462DB2D21A691EF01AFFF7D8FF3C
:103890002C44013CC0EB441070BD38B504460846CA
:1038A000B4F81831B4F816110B44B4F84010D4E948
:1038B0004B52C91A09B2521B0139401BFFF7C0FF16
:1038C000B4F9163100EB431038BD000070B5002389
:1038D000124E8380124B0360336893F876200546BE
:1038E0000AB1D86C00B998680368DB6A98473368F6
:1038F000B0FA80F4D86C640930B10368DB6A984789
:10390000002808BF44F001042CB9064B064A0748BA
:103910002C2122F043F8284670BD00BF74DC002043
:10392000C87B02082A78020888780208C178020851
:10393000064BC1604A0903EA112302F4FC621343F7
:10394000C1F3C40119430182704700BF00F8FFFFB3
:10395000A0F10800ECE700BF10B5262204460021C4
:1039600022F0A8F82046FFF759FF0A4B23600A4BC4
:10397000A3624FF6FF73A3854FF47F020023C4E9CF
:103980000C324FF0FF32C4E910232387E363204653
:1039900010BD00BFD88A02080473020810B52622A1
:1039A0000446002122F086F82046FFF737FF002367
:1039B000A36284F82C30012384F82430044B236064
:1039C0004FF6FF73E385238684F83230204610BD1E
:1039D000D08B02081B4B73B51B88018F8B420646A8
:1039E0002BD9194B1B682BB9184B194A19486C2154
:1039F00021F0D4FF13F81120174B1B6853F8225005
:103A0000164B186805F016FA2B68019001469B6A60
:103A1000284698472B6801991B6C0446284698470E
:103A20002B6801995B6A14FB00F428469847E4B2BE
:103A3000044486F8454002B070BD002380F845304C
:103A4000F9E700BFD0DC0020CCDC0020237902089D
:103A500065790208A0790208D4DC0020D8DC0020B7
:103A600010B504460DF0FEFD00230122C4E90B321F
:103A7000084AA2634FF6FF726363A28784F840305E
:103A8000A4F842302E22A364034BA4F84420236000
:103A9000204610BD04730208C48902082DE9F04FC6
:103AA0002DED0E8B04468DB014F0FAF82246002658
:103AB000EC4BE66342F8403B08EE102A31462622E2
:103AC00018EE100A21F0F6FF18EE100AFFF7A6FE16
:103AD00004F16C09FF25E44B236426224FF6FF73A3
:103AE000314684F86650A6664846ADF8283021F085
:103AF000E1FF4846FFF792FEDC4BE366BDF8283055
:103B0000A4F8923084F894500AA904F19805484624
:103B100010F0E3F8C82128460EF046F9D44BC4F85B
:103B20009830012704F5F4733146C4E97736C7228B
:103B3000C4E975762846FFF71BF9CE4BC4F89830D8
:103B400004F5A163A4F8E46118460CEE903A0DF078
:103B500089FDC94BC4F8083504F5A7624FF002038C
:103B600084F8343510460BEE102AFFF7AFFEC34B36
:103B7000C4F8383504F24C522433C4F84465C4F810
:103B8000403510464FF00A080DEE102A0DF06AFD80
:103B900004F28C52BA4BC4F87865C4F88085C4F836
:103BA0008865C4F84C351046C4F87C7584F8847573
:103BB0000DEE902A0DF056FDB24BC4F88C3504F290
:103BC000CC52C4F8B865C4F8C085C4F8C8651046BE
:103BD000C4F8BC7584F8C4750EEE102AFFF740FFD8
:103BE00004F5C36210460BEE902AFFF739FF04F28A
:103BF000646210460CEE102A05F0CAFC04F21C7236
:103C0000104608EE902A10F08FF904F26472104604
:103C100009EE102AFFF7C2FE04F5F362104609EE22
:103C2000902AFFF7BBFE04F2CC7210460AEE102A6F
:103C3000FFF7B4FE04F50062104604F6340A0AEEFB
:103C4000902A04F67C0BFFF7A9FE5046FFF784FE8E
:103C50005846FFF781FE8C4BC4F8C4388B4BC4F830
:103C6000CC388B4BC4F8D4388A4BC4F8DC388A4B38
:103C7000C4F8E438894BC4F8D06804F6C402C4F828
:103C8000E068C4F8EC38C4F8F06842F6E06104F685
:103C9000F400C4F8C848C4F8D848C4F8E848039207
:103CA00010F0FEFF4FF4F0733246314618EE100A62
:103CB00000934FF44873FFF79DFD4FF07F43A366D9
:103CC000324631464846FFF788FD0AA94846ADF816
:103CD000286010F002F8324664212846FFF7FCF90C
:103CE000F62332463146009328464FF44873FFF7D7
:103CF00081FD1E2233464146009228460EF006F80A
:103D0000334632463146009628460DF014FF9FEDAB
:103D1000640AF0EE0C0A2846FFF7C0F804F6D40354
:103D2000C4F8BC3104F6E4036422D4F87C15C4F86A
:103D3000C031D4F880050EF09BF85A4BC4F87835A2
:103D40004FF064084FF4C863C4F880351DEE101AB4
:103D50002846C4F87C8584F884750DF0F7FE424649
:103D6000D4F8BC15D4F8C0050EF082F84D4BC4F859
:103D7000B8353C23C4F8C0351DEE901A2846C4F867
:103D8000BC8584F8C4750DF0E1FE4246D4F8FC15FC
:103D9000D4F800060EF06CF83223C4F800361BEE9F
:103DA000903AA4F808663F4EC4F814361EEE101A76
:103DB0002846C4F8FC85A4F80E76C4F8F8650DF022
:103DC000D7FE4246D4F84816D4F84C060EF050F808
:103DD0000623A4F854361BEE901A2846C4F84886E9
:103DE000C4F84C86A4F85A76C4F844660DF0C0FEB8
:103DF0002D491BEE100AFFF79BFD1BEE103AC4F88D
:103E000030354FF002031CEE901A84F83435284602
:103E10000DF09CFED4ED337A9FED247AF8EEE77A2C
:103E200067EE877AF5EEC07AF1EE10FAC2F23486C8
:103E3000B6EE007A77EE877AFDEEE77A17EE901A03
:103E400028460EF06FF8D4ED337A9FED197AF8EE2C
:103E5000E77A67EE877AF5EEC07AF1EE10FAC2F2F1
:103E600030864DE0CC7D0208688B0208448C020845
:103E70006C860208E87B020844890208BC850208B7
:103E8000587A0208107B0208847D0208A9360008CF
:103E90009C7D0208F1360008B47D02080D37000849
:103EA00000000000C59714FF3C17C2FFDE590F4009
:103EB0000EA1184060E520403D61274073682B400B
:103EC00082732C404E282A40D4602440732E1B401D
:103ED00017D90E40E9B7FF3F56BCDD3F2653B93F27
:103EE0009F3C943FB398603F85991E3FAC8BCB3E7F
:103EF00095B7633ECBDBD13D7407313D033E3F3D7B
:103F0000B6EE007A77EE877AFDEEE77A17EE901A32
:103F100028460EF007F8D4ED337A1FED1A7AF8EE42
:103F2000E77A67EE877AF5EEC07AF1EE10FAC2F220
:103F3000DD85B6EE007A77EE877AFDEEE77A17EE4A
:103F4000901A28460DF0EEFFD4ED337A1FED267A55
:103F5000F8EEE77A67EE877AF5EEC07AF1EE10FABE
:103F6000C2F2D985B6EE007A77EE877AFDEEE77A6F
:103F700017EE901A28460DF0D5FFD4ED337A1FEDD9
:103F8000317AF8EEE77A67EE877AF5EEC07AF1EEED
:103F900010FAC2F2D585B6EE007A77EE877AFDEE9A
:103FA000E77A17EE901A28460DF0BCFFD4ED337A6D
:103FB0001FED3D7AF8EEE77A67EE877AF5EEC07A84
:103FC000F1EE10FAC2F2D185B6EE007A77EE877A7A
:103FD000FDEEE77A17EE901A28460DF0A3FFD4ED18
:103FE000337A1FED487AF8EEE77A67EE877AF5EED6
:103FF000C07AF1EE10FAC2F2CD85B6EE007A77EE15
:10400000877AFDEEE77A17EE901A28460DF08AFFC0
:10401000D4ED337A1FED547AF8EEE77A67EE877ABB
:10402000F5EEC07AF1EE10FAC2F2C985B6EE007A6A
:1040300077EE877AFDEEE77A17EE901A28460DF0B4
:1040400071FFD4ED337A1FED5F7AF8EEE77A67EE11
:10405000877AF5EEC07AF1EE10FAC2F2C585B6EEB7
:10406000007A77EE877AFDEEE77A17EE901A284607
:104070000DF058FFD4ED337A1FED6B7AF8EEE77A46
:1040800067EE877AF5EEC07AF1EE10FAC2F2C185DA
:10409000B6EE007A77EE877AFDEEE77A17EE901AA1
:1040A00028460DF03FFFD4ED337A1FED767AF8EE17
:1040B000E77A67EE877AF5EEC07AF1EE10FAC2F28F
:1040C000BD85B6EE007A77EE877AFDEEE77A17EED9
:1040D000901A28460DF026FFD4ED337A1FED827A30
:1040E000F8EEE77A67EE877AF5EEC07AF1EE10FA2D
:1040F000C2F2B985B6EE007A77EE877AFDEEE77AFE
:1041000017EE901A28460DF00DFFD4ED337A1FED0F
:104110008D7AF8EEE77A67EE877AF5EEC07AF1EEFF
:1041200010FAC2F2B585B6EE007A77EE877AFDEE28
:10413000E77A17EE901A28460DF0F4FED4ED337AA4
:104140001FED997AF8EEE77A67EE877AF5EEC07A96
:10415000F1EE10FAC2F2B185B6EE007A77EE877A08
:10416000FDEEE77A17EE901A28460DF0DBFED4ED4F
:10417000337A1FEDA47AF8EEE77A67EE877AF5EEE8
:10418000C07AF1EE10FAC2F2AD85B6EE007A77EEA3
:10419000877AFDEEE77A17EE901A28460DF0C2FEF8
:1041A000D4ED337A1FEDB07AF8EEE77A67EE877ACE
:1041B000F5EEC07AF1EE10FAC2F2A985B6EE007AF9
:1041C00077EE877AFDEEE77A17EE901A28460DF023
:1041D000A9FED4ED337A1FEDBB7AF8EEE77A67EEED
:1041E000877AF5EEC07AF1EE10FAC2F2A585B6EE46
:1041F000007A77EE877AFDEEE77A17EE901A284676
:104200000DF090FED4ED337A1FEDC77AF8EEE77A21
:1042100067EE877AF5EEC07AF1EE10FAC2F2A18568
:10422000B6EE007A77EE877AFDEEE77A17EE901A0F
:1042300028460DF077FED4ED337A1FEDD27AF8EEF2
:10424000E77A67EE877AF5EEC07AF1EE10FAC2F2FD
:10425000A385B6EE007A77EE877AFDEEE77A17EE61
:10426000901A28460DF05EFED4ED337A1FEDDE7A0B
:10427000F8EEE77A67EE877AF5EEC07AF1EE10FA9B
:10428000C2F29F85B6EE007A77EE877AFDEEE77A86
:1042900017EE901A28460DF045FED4ED337A1FED47
:1042A000E97AF8EEE77A67EE877AF5EEC07AF1EE12
:1042B00010FAC2F29B85B6EE007A77EE877AFDEEB1
:1042C000E77A17EE901A28460DF02CFED4ED337ADB
:1042D0009FEDF37AF8EEE77A67EE877AF5EEC07A2B
:1042E000F1EE10FAC2F29785B6EE007A77EE877A91
:1042F000FDEEE77A17EE901A28460DF013FED4ED86
:10430000337A9FEDE87AF8EEE77A67EE877AF5EE92
:10431000C07AF1EE10FAC2F29385B6EE007A77EE2B
:10432000877AFDEEE77A17EE901A28460DF0FAFD2F
:10433000D4ED337A9FEDDC7AF8EEE77A67EE877A90
:10434000F5EEC07AF1EE10FAC2F28F85B6EE007A81
:1043500077EE877AFDEEE77A17EE901A28460DF091
:10436000E1FDD4ED337A9FEDD17AF8EEE77A67EE8E
:10437000877AF5EEC07AF1EE10FAC2F28B85B6EECE
:10438000007A77EE877AFDEEE77A17EE901A2846E4
:104390000DF0C8FDD4ED337A9FEDC57AF8EEE77ADB
:1043A00067EE877AF5EEC07AF1EE10FAC2F28785F1
:1043B000B6EE007A77EE877AFDEEE77A17EE901A7E
:1043C00028460DF0AFFDD4ED337A9FEDBA7AF8EEC2
:1043D000E77A67EE877AF5EEC07AF1EE10FAC2F26C
:1043E0008385B6EE007A77EE877AFDEEE77A17EEF0
:1043F000901A28460DF096FDD4ED337A9FEDAE7AF3
:10440000F8EEE77A67EE877AF5EEC07AF1EE10FA09
:10441000C2F27F85B6EE007A77EE877AFDEEE77A14
:1044200017EE901A28460DF07DFDD4ED337A9FEDFE
:10443000A37AF8EEE77A67EE877AF5EEC07AF1EEC6
:1044400010FAC2F27B85B6EE007A77EE877AFDEE3F
:10445000E77A17EE901A28460DF064FDD4ED337A12
:104460009FED977AF8EEE77A67EE877AF5EEC07AF5
:10447000F1EE10FAC2F27785B6EE007A77EE877A1F
:10448000FDEEE77A17EE901A28460DF04BFDD4EDBD
:10449000337A9FED8C7AF8EEE77A67EE877AF5EE5D
:1044A000C07AF1EE10FAC2F27385B6EE007A77EEBA
:1044B000877AFDEEE77A17EE901A28460DF032FD66
:1044C000D4ED337A9FED807AF8EEE77A67EE877A5B
:1044D000F5EEC07AF1EE10FAC2F26F85B6EE007A10
:1044E00077EE877AFDEEE77A17EE901A28460DF000
:1044F00019FDD4ED337A9FED757AF8EEE77A67EE21
:10450000877AF5EEC07AF1EE10FAC2F26B85B6EE5C
:10451000007A77EE877AFDEEE77A17EE901A284652
:104520000DF000FDD4ED337A9FED697AF8EEE77A6D
:1045300067EE877AF5EEC07AF1EE10FAC2F267857F
:10454000B6EE007A77EE877AFDEEE77A17EE901AEC
:1045500028460DF0E7FCD4ED337A9FED5E7AF8EE55
:10456000E77A67EE877AF5EEC07AF1EE10FAC2F2DA
:104570006385B6EE007A77EE877AFDEEE77A17EE7E
:10458000901A28460DF0CEFCD4ED337A9FED527A86
:10459000F8EEE77A67EE877AF5EEC07AF1EE10FA78
:1045A000C2F25F85B6EE007A77EE877AFDEEE77AA3
:1045B00017EE901A28460DF0B5FCD4ED337A9FED36
:1045C000477AF8EEE77A67EE877AF5EEC07AF1EE91
:1045D00010FAC2F25B85B6EE007A77EE877AFDEECE
:1045E000E77A17EE901A28460DF09CFCD4ED337A4A
:1045F0009FED3B7AF8EEE77A67EE877AF5EEC07AC0
:10460000F1EE10FAC2F25785B6EE007A77EE877AAD
:10461000FDEEE77A17EE901A28460DF083FCD4EDF4
:10462000337A9FED307AF8EEE77A67EE877AF5EE27
:10463000C07AF1EE10FAC2F25385B6EE007A77EE48
:10464000877AFDEEE77A17EE901A28460DF06AFC9D
:10465000D4ED337A9FED247AF8EEE77A67EE877A25
:10466000F5EEC07AF1EE10FAC2F24F85B6EE007A9E
:1046700077EE877AFDEEE77A17EE901A28460DF06E
:1046800051FCD4ED337A9FED197AF8EEE77A67EEB4
:10469000877AF5EEC07AF1EE10FAC2F24B854DE062
:1046A000E63FE43DC6506E3EB22ECE3E90661C3FC5
:1046B0002159583F7BBD8B3F3220AB3FE4A0C83F20
:1046C0005FB5E23F9817F83FAFEB034063B4084093
:1046D000DA550A406AF60840B3EF04401591FD3FF1
:1046E000AC56EE3F17B7DD3F3350CD3F41BCBE3F28
:1046F0000877B33F48C4AC3F179AAB3F2A91B03F0D
:1047000002D9BB3F5D33CD3F77F8E33F8E1EFF3FBD
:10471000CEA50E40D6731E40331B2E40A1B93C409F
:10472000B8754940A88C5340B35E5A4003785D4049
:1047300007995C4034BA57405F0C4F40B6EE007AA0
:1047400077EE877AFDEEE77A17EE901A28460DF09D
:10475000E9FBD4ED337A1FED1A7AF8EEE77A67EECB
:10476000877AF5EEC07AF1EE10FAC2F2F884B6EE6E
:10477000007A77EE877AFDEEE77A17EE901A2846F0
:104780000DF0D0FBD4ED337A1FED267AF8EEE77A00
:1047900067EE877AF5EEC07AF1EE10FAC2F2F48491
:1047A000B6EE007A77EE877AFDEEE77A17EE901A8A
:1047B00028460DF0B7FBD4ED337A1FED317AF8EED1
:1047C000E77A67EE877AF5EEC07AF1EE10FAC2F278
:1047D000F084B6EE007A77EE877AFDEEE77A17EE90
:1047E000901A28460DF09EFBD4ED337A1FED3D7AEA
:1047F000F8EEE77A67EE877AF5EEC07AF1EE10FA16
:10480000C2F2EC84B6EE007A77EE877AFDEEE77AB4
:1048100017EE901A28460DF085FBD4ED337A1FED84
:10482000487AF8EEE77A67EE877AF5EEC07AF1EE2D
:1048300010FAC2F2E884B6EE007A77EE877AFDEEDF
:10484000E77A17EE901A28460DF06CFBD4ED337A18
:104850001FED547AF8EEE77A67EE877AF5EEC07AC4
:10486000F1EE10FAC2F2E484B6EE007A77EE877ABF
:10487000FDEEE77A17EE901A28460DF053FBD4EDC3
:10488000337A1FED5F7AF8EEE77A67EE877AF5EE16
:10489000C07AF1EE10FAC2F2E084B6EE007A77EE5A
:1048A000877AFDEEE77A17EE901A28460DF03AFB6C
:1048B000D4ED337A1FED6B7AF8EEE77A67EE877AFC
:1048C000F5EEC07AF1EE10FAC2F2DC84B6EE007AB0
:1048D00077EE877AFDEEE77A17EE901A28460DF00C
:1048E00021FBD4ED337A1FED767AF8EEE77A67EEA6
:1048F000877AF5EEC07AF1EE10FAC2F2D884B6EEFD
:10490000007A77EE877AFDEEE77A17EE901A28465E
:104910000DF008FBD4ED337A1FED827AF8EEE77ADA
:1049200067EE877AF5EEC07AF1EE10FAC2F2D4841F
:10493000B6EE007A77EE877AFDEEE77A17EE901AF8
:1049400028460DF0EFFAD4ED337A1FED8D7AF8EEAC
:10495000E77A67EE877AF5EEC07AF1EE10FAC2F2E6
:10496000D084B6EE007A77EE877AFDEEE77A17EE1E
:10497000901A28460DF0D6FAD4ED337A1FED997AC5
:10498000F8EEE77A67EE877AF5EEC07AF1EE10FA84
:10499000C2F2CC84B6EE007A77EE877AFDEEE77A43
:1049A00017EE901A28460DF0BDFAD4ED337A1FEDBC
:1049B000A47AF8EEE77A67EE877AF5EEC07AF1EE40
:1049C00010FAC2F2C884B6EE007A77EE877AFDEE6E
:1049D000E77A17EE901A28460DF0A4FAD4ED337A50
:1049E0001FEDB07AF8EEE77A67EE877AF5EEC07AD7
:1049F000F1EE10FAC2F2C484B6EE007A77EE877A4E
:104A0000FDEEE77A17EE901A28460DF08BFAD4EDFA
:104A1000337A1FEDBB7AF8EEE77A67EE877AF5EE28
:104A2000C07AF1EE10FAC2F2C084B6EE007A77EEE8
:104A3000877AFDEEE77A17EE901A28460DF072FAA3
:104A4000D4ED337A1FEDC77AF8EEE77A67EE877A0E
:104A5000F5EEC07AF1EE10FAC2F2BC84B6EE007A3E
:104A600077EE877AFDEEE77A17EE901A28460DF07A
:104A700059FAD4ED337A1FEDD27AF8EEE77A67EE81
:104A8000877AF5EEC07AF1EE10FAC2F2B884B6EE8B
:104A9000007A77EE877AFDEEE77A17EE901A2846CD
:104AA0000DF040FAD4ED337A1FEDDE7AF8EEE77AB6
:104AB00067EE877AF5EEC07AF1EE10FAC2F2B484AE
:104AC000B6EE007A77EE877AFDEEE77A17EE901A67
:104AD00028460DF027FAD4ED337A1FEDE97AF8EE87
:104AE000E77A67EE877AF5EEC07AF1EE10FAC2F255
:104AF000B084B6EE007A77EE877AFDEEE77A17EEAD
:104B0000901A28460DF00EFAD4ED337A9FEDF37A21
:104B1000F8EEE77A67EE877AF5EEC07AF1EE10FAF2
:104B2000C2F2AC84B6EE007A77EE877AFDEEE77AD1
:104B300017EE901A28460DF0F5F9D4ED337A9FED73
:104B4000E87AF8EEE77A67EE877AF5EEC07AF1EE6A
:104B500010FAC2F2A884B6EE007A77EE877AFDEEFC
:104B6000E77A17EE901A28460DF0DCF9D4ED337A87
:104B70009FEDDC7AF8EEE77A67EE877AF5EEC07A99
:104B8000F1EE10FAC2F2A484B6EE007A77EE877ADC
:104B9000FDEEE77A17EE901A28460DF0C3F9D4ED32
:104BA000337A9FEDD17AF8EEE77A67EE877AF5EE01
:104BB000C07AF1EE10FAC2F2A084B6EE007A77EE77
:104BC000877AFDEEE77A17EE901A28460DF0AAF9DB
:104BD000D4ED337A9FEDC57AF8EEE77A67EE877AFF
:104BE000F5EEC07AF1EE10FAC2F29C84B6EE007ACD
:104BF00077EE877AFDEEE77A17EE901A28460DF0E9
:104C000091F9D4ED337A9FEDBA7AF8EEE77A67EE50
:104C1000877AF5EEC07AF1EE10FAC2F29884B6EE19
:104C2000007A77EE877AFDEEE77A17EE901A28463B
:104C30000DF078F9D4ED337A9FEDAE7AF8EEE77A9D
:104C400067EE877AF5EEC07AF1EE10FAC2F294843C
:104C5000B6EE007A77EE877AFDEEE77A17EE901AD5
:104C600028460DF05FF9D4ED337A9FEDA37AF8EE84
:104C7000E77A67EE877AF5EEC07AF1EE10FAC2F2C3
:104C80009084B6EE007A77EE877AFDEEE77A17EE3B
:104C9000901A28460DF046F9D4ED337A9FED977AB5
:104CA000F8EEE77A67EE877AF5EEC07AF1EE10FA61
:104CB000C2F28C84B6EE007A77EE877AFDEEE77A60
:104CC00017EE901A28460DF02DF9D4ED337A9FEDAA
:104CD0008C7AF8EEE77A67EE877AF5EEC07AF1EE35
:104CE00010FAC2F28884B6EE007A77EE877AFDEE8B
:104CF000E77A17EE901A28460DF014F9D4ED337ABE
:104D00009FED807AF8EEE77A67EE877AF5EEC07A63
:104D1000F1EE10FAC2F28484B6EE007A77EE877A6A
:104D2000FDEEE77A17EE901A28460DF0FBF8D4ED69
:104D3000337A9FED757AF8EEE77A67EE877AF5EECB
:104D4000C07AF1EE10FAC2F28084B6EE007A77EE05
:104D5000877AFDEEE77A17EE901A28460DF0E2F812
:104D6000D4ED337A9FED697AF8EEE77A67EE877AC9
:104D7000F5EEC07AF1EE10FAC2F27C84B6EE007A5B
:104D800077EE877AFDEEE77A17EE901A28460DF057
:104D9000C9F8D4ED337A9FED5E7AF8EEE77A67EEE4
:104DA000877AF5EEC07AF1EE10FAC2F27884B6EEA8
:104DB000007A77EE877AFDEEE77A17EE901A2846AA
:104DC0000DF0B0F8D4ED337A9FED527AF8EEE77A31
:104DD00067EE877AF5EEC07AF1EE10FAC2F27484CB
:104DE000B6EE007A77EE877AFDEEE77A17EE901A44
:104DF00028460DF097F8D4ED337A9FED477AF8EE18
:104E0000E77A67EE877AF5EEC07AF1EE10FAC2F231
:104E10007084B6EE007A77EE877AFDEEE77A17EEC9
:104E2000901A28460DF07EF8D4ED337A9FED3B7A48
:104E3000F8EEE77A67EE877AF5EEC07AF1EE10FACF
:104E4000C2F26C84B6EE007A77EE877AFDEEE77AEE
:104E500017EE901A28460DF065F8D4ED337A9FEDE1
:104E6000307AF8EEE77A67EE877AF5EEC07AF1EEFF
:104E700010FAC2F26884B6EE007A77EE877AFDEE19
:104E8000E77A17EE901A28460DF04CF8D4ED337AF5
:104E90009FED247AF8EEE77A67EE877AF5EEC07A2E
:104EA000F1EE10FAC2F26484B6EE007A77EE877AF9
:104EB000FDEEE77A17EE901A28460DF033F8D4EDA0
:104EC000337A9FED197AF8EEE77A67EE877AF5EE96
:104ED000C07AF1EE10FAC2F260844DE016F642405C
:104EE000410E34401B122340E4DA104090A0FC3FF6
:104EF00035B5D83F22ABB73FFF049B3F16FB833F3E
:104F000039D1663F3081533FED0D4E3F12A5553FDD
:104F10000DAB683F556A823F2FA8933FB37BA63FF6
:104F2000D53EB93F5457CA3FA54ED83FD5ECE13FD7
:104F30008C4AE63F1EE1E43F5B94DD3FEAB2D03F9E
:104F40009DF4BE3FBA6BA93F3277913F7155713FD7
:104F5000BA6B413F9F93163F8CF3E73E05C0B83EC6
:104F600064E9A33E3754AC3EC139D33E780B0C3FC5
:104F700086553C3F3F8C783FB6EE007A77EE877AD5
:104F8000FDEEE77A17EE901A28460CF0CBFFD4ED31
:104F9000337A1FED1A7AF8EEE77A67EE877AF5EE44
:104FA000C07AF1EE10FAC2F20D84B6EE007A77EE16
:104FB000877AFDEEE77A17EE901A28460CF0B2FFDA
:104FC000D4ED337A1FED267AF8EEE77A67EE877A2A
:104FD000F5EEC07AF1EE10FAC2F20984B6EE007A6C
:104FE00077EE877AFDEEE77A17EE901A28460CF0F6
:104FF00099FFD4ED337A1FED317AF8EEE77A67EE58
:10500000877AF5EEC07AF1EE10FAC2F20584B6EEB8
:10501000007A77EE877AFDEEE77A17EE901A284647
:105020000CF080FFD4ED337A1FED3D7AF8EEE77A8D
:1050300067EE877AF5EEC07AF1EE10FAC2F20184DB
:10504000B6EE007A77EE877AFDEEE77A17EE901AE1
:1050500028460CF067FFD4ED337A1FED487AF8EE5E
:10506000E77A67EE877AF5EEC07AF1EE10FAC2F2CF
:10507000FD83B6EE007A77EE877AFDEEE77A17EEDB
:10508000901A28460CF04EFFD4ED337A1FED547A77
:10509000F8EEE77A67EE877AF5EEC07AF1EE10FA6D
:1050A000C2F2F983B6EE007A77EE877AFDEEE77A00
:1050B00017EE901A28460CF035FFD4ED337A1FED29
:1050C0005F7AF8EEE77A67EE877AF5EEC07AF1EE6E
:1050D00010FAC2F2F583B6EE007A77EE877AFDEE2B
:1050E000E77A17EE901A28460CF01CFFD4ED337ABD
:1050F0001FED6B7AF8EEE77A67EE877AF5EEC07A05
:10510000F1EE10FAC2F2F183B6EE007A77EE877A0A
:10511000FDEEE77A17EE901A28460CF003FFD4ED67
:10512000337A1FED767AF8EEE77A67EE877AF5EE56
:10513000C07AF1EE10FAC2F2ED83B6EE007A77EEA5
:10514000877AFDEEE77A17EE901A28460CF0EAFE11
:10515000D4ED337A1FED827AF8EEE77A67EE877A3C
:10516000F5EEC07AF1EE10FAC2F2E983B6EE007AFB
:1051700077EE877AFDEEE77A17EE901A28460CF064
:10518000D1FED4ED337A1FED8D7AF8EEE77A67EE33
:10519000877AF5EEC07AF1EE10FAC2F2E583B6EE48
:1051A000007A77EE877AFDEEE77A17EE901A2846B6
:1051B0000CF0B8FED4ED337A1FED997AF8EEE77A69
:1051C00067EE877AF5EEC07AF1EE10FAC2F2E1836B
:1051D000B6EE007A77EE877AFDEEE77A17EE901A50
:1051E00028460CF09FFED4ED337A1FEDA47AF8EE3A
:1051F000E77A67EE877AF5EEC07AF1EE10FAC2F23E
:10520000DD83B6EE007A77EE877AFDEEE77A17EE69
:10521000901A28460CF086FED4ED337A1FEDB07A52
:10522000F8EEE77A67EE877AF5EEC07AF1EE10FADB
:10523000C2F2D983B6EE007A77EE877AFDEEE77A8E
:1052400017EE901A28460CF06DFED4ED337A1FED60
:10525000BB7AF8EEE77A67EE877AF5EEC07AF1EE80
:1052600010FAC2F2D583B6EE007A77EE877AFDEEB9
:10527000E77A17EE901A28460CF054FED4ED337AF4
:105280001FEDC77AF8EEE77A67EE877AF5EEC07A17
:10529000F1EE10FAC2F2D183B6EE007A77EE877A99
:1052A000FDEEE77A17EE901A28460CF03BFED4ED9F
:1052B000337A1FEDD27AF8EEE77A67EE877AF5EE69
:1052C000C07AF1EE10FAC2F2CD83B6EE007A77EE34
:1052D000877AFDEEE77A17EE901A28460CF022FE48
:1052E000D4ED337A1FEDDE7AF8EEE77A67EE877A4F
:1052F000F5EEC07AF1EE10FAC2F2C983B6EE007A8A
:1053000077EE877AFDEEE77A17EE901A28460CF0D2
:1053100009FED4ED337A1FEDE97AF8EEE77A67EE0D
:10532000877AF5EEC07AF1EE10FAC2F2C583B6EED6
:10533000007A77EE877AFDEEE77A17EE901A284624
:105340000CF0F0FDD4ED337A9FEDF37AF8EEE77AC6
:1053500067EE877AF5EEC07AF1EE10FAC2F2C183F9
:10536000B6EE007A77EE877AFDEEE77A17EE901ABE
:1053700028460CF0D7FDD4ED337A9FEDE87AF8EEAD
:10538000E77A67EE877AF5EEC07AF1EE10FAC2F2AC
:10539000BD83B6EE007A77EE877AFDEEE77A17EEF8
:1053A000901A28460CF0BEFDD4ED337A9FEDDC7ADE
:1053B000F8EEE77A67EE877AF5EEC07AF1EE10FA4A
:1053C000C2F2B983B6EE007A77EE877AFDEEE77A1D
:1053D00017EE901A28460CF0A5FDD4ED337A9FED18
:1053E000D17AF8EEE77A67EE877AF5EEC07AF1EED9
:1053F00010FAC2F2B583B6EE007A77EE877AFDEE48
:10540000E77A17EE901A28460CF08CFDD4ED337A2B
:105410009FEDC57AF8EEE77A67EE877AF5EEC07A07
:10542000F1EE10FAC2F2B183B6EE007A77EE877A27
:10543000FDEEE77A17EE901A28460CF073FDD4EDD6
:10544000337A9FEDBA7AF8EEE77A67EE877AF5EE6F
:10545000C07AF1EE10FAC2F2AD83B6EE007A77EEC2
:10546000877AFDEEE77A17EE901A28460CF05AFD7F
:10547000D4ED337A9FEDAE7AF8EEE77A67EE877A6D
:10548000F5EEC07AF1EE10FAC2F2A983B6EE007A18
:1054900077EE877AFDEEE77A17EE901A28460CF041
:1054A00041FDD4ED337A9FEDA37AF8EEE77A67EE0B
:1054B000877AF5EEC07AF1EE10FAC2F2A583B6EE65
:1054C000007A77EE877AFDEEE77A17EE901A284693
:1054D0000CF028FDD4ED337A9FED977AF8EEE77A59
:1054E00067EE877AF5EEC07AF1EE10FAC2F2A18388
:1054F000B6EE007A77EE877AFDEEE77A17EE901A2D
:1055000028460CF00FFDD4ED337A9FED8C7AF8EE3F
:10551000E77A67EE877AF5EEC07AF1EE10FAC2F21A
:105520009D83B6EE007A77EE877AFDEEE77A17EE86
:10553000901A28460CF0F6FCD4ED337A9FED807A71
:10554000F8EEE77A67EE877AF5EEC07AF1EE10FAB8
:10555000C2F29983B6EE007A77EE877AFDEEE77AAB
:1055600017EE901A28460CF0DDFCD4ED337A9FED4F
:10557000757AF8EEE77A67EE877AF5EEC07AF1EEA3
:1055800010FAC2F29583B6EE007A77EE877AFDEED6
:10559000E77A17EE901A28460CF0C4FCD4ED337A63
:1055A0009FED697AF8EEE77A67EE877AF5EEC07AD2
:1055B000F1EE10FAC2F29183B6EE007A77EE877AB6
:1055C000FDEEE77A17EE901A28460CF0ABFCD4ED0E
:1055D000337A9FED5E7AF8EEE77A67EE877AF5EE3A
:1055E000C07AF1EE10FAC2F28D83B6EE007A77EE51
:1055F000877AFDEEE77A17EE901A28460CF092FCB7
:10560000D4ED337A9FED527AF8EEE77A67EE877A37
:10561000F5EEC07AF1EE10FAC2F28983B6EE007AA6
:1056200077EE877AFDEEE77A17EE901A28460CF0AF
:1056300079FCD4ED337A9FED477AF8EEE77A67EE9E
:10564000877AF5EEC07AF1EE10FAC2F28583B6EEF3
:10565000007A77EE877AFDEEE77A17EE901A284601
:105660000CF060FCD4ED337A9FED3B7AF8EEE77AEC
:1056700067EE877AF5EEC07AF1EE10FAC2F2818316
:10568000B6EE007A77EE877AFDEEE77A17EE901A9B
:1056900028460CF047FCD4ED337A9FED307AF8EED3
:1056A000E77A67EE877AF5EEC07AF1EE10FAC2F289
:1056B0007D83B6EE007A77EE877AFDEEE77A17EE15
:1056C000901A28460CF02EFCD4ED337A9FED247A04
:1056D000F8EEE77A67EE877AF5EEC07AF1EE10FA27
:1056E000C2F27983B6EE007A77EE877AFDEEE77A3A
:1056F00017EE901A28460CF015FCD4ED337A9FED86
:10570000197AF8EEE77A67EE877AF5EEC07AF1EE6D
:1057100010FAC2F275834DE04F069F3F02D4C43F9A
:1057200060EAEB3F1D3809401F4B1B40BC572B4024
:10573000A0A638403FA94240B40249402A8C4B40C1
:10574000D1574A4097AD4540B3073E402D093440FC
:105750007E742840791E1C40B5E00F40698C0440DF
:105760000FB9F53FD4D4E63F5249DD3FC98ED93F4A
:10577000A7B3DB3F8A59E33F23BEEF3FA8C6FF3FF5
:1057800018090940A4881240EF8F1B40B54F2340F1
:10579000C0092940001D2C4062102C40AA9A2840C4
:1057A0002FA82140255D17402B130A40BDA9F43FC7
:1057B00043ADD13FB6EE007A77EE877AFDEEE77A19
:1057C00017EE901A28460CF0ADFBD4ED337A1FED9E
:1057D0001A7AF8EEE77A67EE877AF5EEC07AF1EE9C
:1057E00010FAC2F22283B6EE007A77EE877AFDEEE7
:1057F000E77A17EE901A28460CF094FBD4ED337A32
:105800001FED267AF8EEE77A67EE877AF5EEC07A32
:10581000F1EE10FAC2F21E83B6EE007A77EE877AC6
:10582000FDEEE77A17EE901A28460CF07BFBD4EDDC
:10583000337A1FED317AF8EEE77A67EE877AF5EE84
:10584000C07AF1EE10FAC2F21A83B6EE007A77EE61
:10585000877AFDEEE77A17EE901A28460CF062FB85
:10586000D4ED337A1FED3D7AF8EEE77A67EE877A6A
:10587000F5EEC07AF1EE10FAC2F21683B6EE007AB7
:1058800077EE877AFDEEE77A17EE901A28460CF04D
:1058900049FBD4ED337A1FED487AF8EEE77A67EEEC
:1058A000877AF5EEC07AF1EE10FAC2F21283B6EE04
:1058B000007A77EE877AFDEEE77A17EE901A28469F
:1058C0000CF030FBD4ED337A1FED547AF8EEE77A22
:1058D00067EE877AF5EEC07AF1EE10FAC2F20E8327
:1058E000B6EE007A77EE877AFDEEE77A17EE901A39
:1058F00028460CF017FBD4ED337A1FED5F7AF8EEF3
:10590000E77A67EE877AF5EEC07AF1EE10FAC2F226
:105910000A83B6EE007A77EE877AFDEEE77A17EE25
:10592000901A28460CF0FEFAD4ED337A1FED6B7A0C
:10593000F8EEE77A67EE877AF5EEC07AF1EE10FAC4
:10594000C2F20683B6EE007A77EE877AFDEEE77A4A
:1059500017EE901A28460CF0E5FAD4ED337A1FEDD5
:10596000767AF8EEE77A67EE877AF5EEC07AF1EEAE
:1059700010FAC2F20283B6EE007A77EE877AFDEE75
:10598000E77A17EE901A28460CF0CCFAD4ED337A69
:105990001FED827AF8EEE77A67EE877AF5EEC07A45
:1059A000F1EE10FAC2F2FE82B6EE007A77EE877A56
:1059B000FDEEE77A17EE901A28460CF0B3FAD4ED14
:1059C000337A1FED8D7AF8EEE77A67EE877AF5EE97
:1059D000C07AF1EE10FAC2F2FA82B6EE007A77EEF1
:1059E000877AFDEEE77A17EE901A28460CF09AFABD
:1059F000D4ED337A1FED997AF8EEE77A67EE877A7D
:105A0000F5EEC07AF1EE10FAC2F2F682B6EE007A46
:105A100077EE877AFDEEE77A17EE901A28460CF0BB
:105A200081FAD4ED337A1FEDA47AF8EEE77A67EEC7
:105A3000877AF5EEC07AF1EE10FAC2F2F282B6EE93
:105A4000007A77EE877AFDEEE77A17EE901A28460D
:105A50000CF068FAD4ED337A1FEDB07AF8EEE77AFD
:105A600067EE877AF5EEC07AF1EE10FAC2F2EE82B6
:105A7000B6EE007A77EE877AFDEEE77A17EE901AA7
:105A800028460CF04FFAD4ED337A1FEDBB7AF8EECE
:105A9000E77A67EE877AF5EEC07AF1EE10FAC2F295
:105AA000EA82B6EE007A77EE877AFDEEE77A17EEB5
:105AB000901A28460CF036FAD4ED337A1FEDC77AE7
:105AC000F8EEE77A67EE877AF5EEC07AF1EE10FA33
:105AD000C2F2E682B6EE007A77EE877AFDEEE77ADA
